:040000006EEF3DF072
:107AA000016E01C082FF83908382420EE82EFED7D2
:107AB00000D08392420EE82EFED700D01200016E55
:107AC00001C082FF83808382420EE82EFED700D061
:107AD0008392420EE82EFED700D01200000EF66E02
:107AE0007C0EF76E000EF86E02EE00F014EE00F061
:107AF0000900F5CFEEFFE550E150FAE1E250F8E180
:107B0000000183EF3DF0000E0F013B6F3BCF3AFFCA
:107B1000000E946E000E956EB80E50EC3DF0400EC7
:107B200050EC3DF03F0E50EC3DF0000E076EB80EED
:107B3000066E000E096E010E086E000E0D6E010E2F
:107B40000C6E0DBE06D00C04040E0D58D8B000EF1C
:107B500000F008C002F009C003F0060ED89002360B
:107B60000336E82EFBD702C004F003C005F00C502A
:107B7000045C0550800A026E0D50800A0258D8A09D
:107B800012D083968384FF0E0C240A6EFF0E0D2004
:107B90000B6E000E0A24D96E020E0B20DA6EDF5037
:107BA0005FEC3DF011D083868394FF0E0C240A6EA7
:107BB000FF0E0D200B6E000E0A24D96E020E0B2054
:107BC000DA6EDF505FEC3DF07F0E0C14026E000E9B
:107BD0000D14036E02500310D8A40FD0010E06241A
:107BE000066E000E0720076E065050EC3DF0020EA8
:107BF0000824086E000E0920096E0C4A0D2AA1D730
:107C00000000000000000000000080C0C0C0C0C034
:107C1000C000C0C0C00000000000000080C0C0C0A4
:107C2000C08000C0C0C0C0C0C0C080000000000054
:107C30000000C0C0C00000C0C0C0C0000080C0C004
:107C4000C0C0C000000080C0C0C0C08000000000F4
:107C5000008080C00000000080C0C0C0C080000064
:107C60000080C0C0C0C0C080000000000000000054
:107C70000000000000000000000000000000000004
:107C800000000000000000003E7FFFF7C1D9FDFDAD
:107C9000FCFCFFFFFFE0C0C0C0003E7FFFF7C1C19A
:107CA000C1C100FFFFFFE3C1E3FFFF7F1C00000035
:107CB0000000FFFFFF1E3FFFFFF38000C7CFCFDFB5
:107CC000FDF9F970007FFFFFC3C1FFFF7F000207CE
:107CD00007FFFFFF0000007FFFFFC3C1FFFF7F0022
:107CE000F3FFFFDDDDFFFFF30000000000000000F8
:107CF0000000000000000000000000000000000084
:107D0000000000000000000000000001010101016E
:107D10000100010101010101010000000001010158
:107D2000010100010101010101010000000000004A
:107D30000000010101000001010101000101010138
:107D4000010100000000000101010100000000002D
:107D5000000101010000000000010101010000001C
:107D6000000101010101010000000000000000000D
:107D70000000000000000000000000000000000003
:107D800000000000000000001E1E001E1E00FEFE7F
:107D9000FEF0E0F0FEFEFE00C0E0F030B0F0F0607B
:107DA00000FEFEFE0000FEFEFE0000C0E0F07030AF
:107DB00070F0F0E00000000030F0F0C0C0F0F0C063
:107DC000C0F0F03000C0E0F0703070F0F0E000F093
:107DD000F0F0703000FEFEFE0000C0F0F070307079
:107DE000FEFEFE001E1E001E1E0000000000000021
:107DF0000000000000000000000000000000000083
:107E000000000000000000000000000000000F0F54
:107E10000F0000000F0F0F0003070F0F0F0E0E0CC7
:107E2000000F0F0F00000F0F0F000003070F0E0EC3
:107E30000E0F07030000000000010F0F0F03070FD4
:107E40000F0F01000003070F0E0E0E0F0703000FA8
:107E50000F0F0000000F0F0F000003070F0E0E0E94
:107E60000F0F0F00000000000000000000000000E5
:107E70000000000000000000000000000000000002
:107E800000000000000000000000000000000000F2
:107E900000000000000000000000000000000000E2
:107EA0000000008080808080808080808080000052
:107EB00010B8F89000F0F0F00080808080008080A2
:107EC0008080800000008080808080800000F0F052
:107ED000F07070F0E0C00000808080808080000042
:107EE0000080808080800000008080808080800012
:107EF0008080808080800000F0F0F00000000000B2
:107F00000000000000000000000000000000000071
:107F10000000000000000000000000000000000061
:107F20000000007F7F7F037F7F7F03037F7F7F00D1
:107F3000007F7F7F007F7F7F0E3F7F7B60007F7FA2
:107F40007F0301001E3F7F7371737F3F1F007F7FA0
:107F50007F0E0E07070300387D7D6D6D7F7F7F00EC
:107F600077676F7D7D39001E3F7F737173710038B5
:107F70007D7D6D6D7F7F7F007F7F7F000000000033
:107F800000000000000000000000000000000000F1
:107F900000000000000000000000000000000000E1
:107FA00000000000000000000000000000000000D1
:107FB00000000000000000000000000000000000C1
:107FC00000000000000000000000000000000000B1
:107FD00000000000000000000000000000000000A1
:107FE0000000000000000000000000000000000091
:107FF0000000000000000000000000000000000081
:020000040020DA
:08000000FFFFFFFFFFFFFFFF00
:020000040030CA
:0E000000FF251F3FFFBF85FF0FC00FE00F4021
:00000001FF
